:020000040000FA
:100000000C9462000C948A000C948A000C948A0070
:100010000C948A000C948A000C948A000C948A0038
:100020000C948A000C948A000C948A000C948A0028
:100030000C948A000C948A000C948A000C948A0018
:100040000C943A070C948A000C94AA070C94840729
:100050000C948A000C948A000C948A000C948A00F8
:100060000C94DC070C948A00000000002400270098
:100070002A0000000000250028002B0000000000DE
:1000800023002600290004040404040404040202DA
:100090000202020203030303030301020408102007
:1000A0004080010204081020010204081020000012
:1000B0000008000201000003040700000000000027
:1000C0000000FB0811241FBECFEFD8E0DEBFCDBF7C
:1000D00011E0A0E0B1E0ECE3F7E102C005900D9281
:1000E000A038B107D9F723E0A0E8B1E001C01D9224
:1000F000A133B207E1F710E0C2E6D0E004C02197D7
:10010000FE010E94960BC136D107C9F70E94420931
:100110000C949C0B0C940000833081F028F4813007
:1001200099F08230A9F008958730A9F08830C9F09D
:100130008430B1F4809180008F7D03C08091800075
:100140008F7780938000089584B58F7784BD08955C
:1001500084B58F7DFBCF8091B0008F778093B00006
:1001600008958091B0008F7DF9CFCF93DF93282F32
:1001700030E0F901E255FF4F8491F901E656FF4F57
:10018000D491F901EA57FF4FC491CC23A1F081111A
:100190000E948C00EC2FF0E0EE0FFF1FE458FF4FA1
:1001A000A591B491EC91ED2381E090E009F480E019
:1001B000DF91CF91089580E090E0FACF1F93CF9325
:1001C000DF93282F30E0F901E255FF4F8491F901C8
:1001D000E656FF4FD491F901EA57FF4FC491CC2363
:1001E000A9F0162F81110E948C00EC2FF0E0EE0F89
:1001F000FF1FEE58FF4FA591B4918FB7F894EC9183
:10020000111108C0D095DE23DC938FBFDF91CF9111
:100210001F910895DE2BF8CFCF93DF9390E0FC0180
:10022000E656FF4F24918A579F4FFC018491882303
:10023000D1F090E0880F991FFC01E859FF4FA5917C
:10024000B491FC01EE58FF4FC591D491623071F426
:100250009FB7F8943C91822F809583238C93E881FB
:100260002E2B28839FBFDF91CF9108958FB7F894ED
:10027000EC912E2B2C938FBFF6CF3FB7F894809143
:100280000B0290910C02A0910D02B0910E0226B5C6
:10029000A89B05C02F3F19F00196A11DB11D3FBFBE
:1002A000BA2FA92F982F8827BC01CD01620F711D8D
:1002B000811D911D42E0660F771F881F991F4A9587
:1002C000D1F7089508950895AF92BF92CF92DF922B
:1002D000EF92FF920F931F93CF93DF936C017B01FB
:1002E0008B01040F151FEB015E01AE18BF08C0178C
:1002F000D10759F06991D601ED91FC910190F081FF
:10030000E02DC6010995892B79F7C501DF91CF91C1
:100310001F910F91FF90EF90DF90CF90BF90AF9023
:100320000895FC01538D448D252F30E0842F90E0FB
:10033000821B930B541710F0CF96089501970895E0
:10034000FC01918D828D981761F0A28DAE0FBF2FA9
:10035000B11D5D968C91928D9F5F9F73928F90E0FF
:1003600008958FEF9FEF0895FC01918D828D98176E
:1003700031F0828DE80FF11D858D90E008958FEFAB
:100380009FEF0895FC01918D228D892F90E0805C74
:100390009F4F821B91098F73992708958FE592E0F3
:1003A0000E94C20121E0892B09F420E0822F0895E8
:1003B00080E090E0892B29F00E94CE0181110C94FD
:1003C00000000895FC01A48DA80FB92FB11DA35AF8
:1003D000BF4F2C91848D90E001968F739927848F65
:1003E000A689B7892C93A089B1898C918370806488
:1003F0008C93938D848D981306C00288F389E02D29
:1004000080818F7D80830895EF92FF920F931F93D9
:10041000CF93DF93EC0181E0888F9B8D8C8D9813B7
:100420001AC0E889F989808185FF15C09FB7F894C3
:10043000EE89FF896083E889F9898081837080640F
:1004400080839FBF81E090E0DF91CF911F910F915A
:10045000FF90EF900895F62E0B8D10E00F5F1F4F69
:100460000F731127E02E8C8D8E110CC00FB607FC78
:10047000FACFE889F989808185FFF5CFCE010E9406
:10048000E201F1CFEB8DEC0FFD2FF11DE35AFF4F91
:10049000F0829FB7F8940B8FEA89FB898081806294
:1004A000CFCFCF93DF93EC01888D8823B9F0AA8951
:1004B000BB89E889F9898C9185FD03C0808186FD1F
:1004C0000DC00FB607FCF7CF8C9185FFF2CF80816E
:1004D00085FFEDCFCE010E94E201E9CFDF91CF9100
:1004E00008952091A101260F3327331F21323105B2
:1004F000ECF420913502FC0190E080E0243069F0BA
:1005000082E00895A091A1012191AC014F575E4F67
:10051000A40FB52FB11D2C930196861798F38091E7
:10052000A101680F6093A10180E0089581E0089522
:100530001092350281E08093340210920F0261E044
:1005400082E10E94DE0061E083E10E94DE00E9EBCF
:10055000F0E080818E7F808380818D7F808388E43E
:100560008093B80085E48093BC000895CF93DF9317
:1005700091E0909380018823B9F0C091B800D091A8
:10058000BA008091BC008A7B8093BC0060E082E16D
:100590000E94DE0060E083E10E94DE000E9498027B
:1005A000D093BA00C093B800DF91CF9108958F9295
:1005B0009F92AF92BF92CF92DF92EF92FF920F93F2
:1005C0001F93CF93DF93D0915E02D13208F0D7C052
:1005D000182FC0915D020E943D016B017C0180914A
:1005E000350281116BC082E0809335021093340292
:1005F0008FEF8093330210923202D0933102ADE339
:10060000B2E0E1E1F2E080E0D81391C01092100274
:1006100080911002CC0FC82BC093100280910F0262
:10062000813009F088C010920F020E943D016B01D9
:100630007C01809110028093BB00809137029091E1
:100640003802A0913902B0913A02892B8A2B8B2B68
:10065000A1F00E943D0100913702109138022091D3
:10066000390230913A026C197D098E099F090617EB
:1006700017072807390708F442C08091BC0083FDA2
:10068000D8CF85EC8093BC000E943D016B017C01BA
:1006900080913502823009F450C0809133028F3F3F
:1006A00009F46FC080913302803209F46CC08091EC
:1006B0003302803309F469C084E026C08091370298
:1006C00090913802A0913902B0913A02892B8A2B7D
:1006D0008B2B09F484CF0E943D01809037029090CB
:1006E0003802A0903902B0903A026C197D098E0947
:1006F0009F0986169706A806B90608F070CF809164
:1007000036020E94B60285E010923C0210925E0210
:1007100010923B02DF91CF911F910F91FF90EF90CC
:10072000DF90CF90BF90AF909F908F9008959D9154
:1007300091938F5F69CF85EEA5CF8091370290911D
:100740003802A0913902B0913A02892B8A2B8B2B67
:1007500009F49ECF0E943D010091370210913802AA
:100760002091390230913A026C197D098E099F0956
:10077000061717072807390708F08ACFC0CF81E08E
:10078000C3CF80E0C1CF82E0BFCF83E0BDCF0F9366
:100790001F93CF93DF938A01E901209711F4CCEFE7
:1007A000D2E091E090933B0280935D0210923C0274
:1007B00010925E02E881F9810190F081E02DCE0176
:1007C0000995E881F9810190F081E02DD8016C91C3
:1007D000CE01099581E00E94D70291E0811190E05D
:1007E000892FDF91CF911F910F9108950895E09186
:1007F000E9018091E801E81730F4F0E0EC53FE4F96
:10080000808190E008958FEF9FEF08959091E90126
:100810008091E8012FEF3FEF981748F4E92FF0E0BF
:10082000EC53FE4F208130E09F5F9093E901C901B6
:1008300008958091E8019091E901891B990B089531
:10084000CF92DF92EF92FF920F931F93CF93DF939C
:100850007C01CB018A0120913B02222389F0EB012C
:100860006B01C40ED51ECC15DD0569F06991D70169
:10087000ED91FC910190F081E02DC7010995F3CF36
:10088000642F0E947102C801DF91CF911F910F91D7
:10089000FF90EF90DF90CF900895CF93DF931F925A
:1008A000CDB7DEB7698320913B022223F9F0209176
:1008B0005E02203258F021E030E0FC0133832283D5
:1008C00090E080E00F90DF91CF91089580913C02FD
:1008D000E82FF0E0E35CFD4F998190838F5F809378
:1008E0003C0280935E0281E090E0ECCF61E0CE01BB
:1008F00001960E947102F7CF90E080E00895FC011C
:1009000001900020E9F73197AF01481B590BBC015A
:100910008FE592E00C9464018F929F92AF92BF9208
:10092000CF92DF92EF92FF920F931F93CF93DF93BB
:10093000CDB7DEB7A1970FB6F894DEBF0FBECDBF1F
:100940006B017C01F7FE41C06DE28FE592E00E94F1
:1009500004028C0122273327A9012C193D094E09D5
:100960005F0919A2CE0181967C019AE0892E912C13
:10097000A12CB12CCA01B901A50194010E94740BEC
:10098000605DF70162937F01211531054105510535
:1009900089F790E080E0309719F0CF010E947F0442
:1009A000800F911FA1960FB6F894DEBF0FBECDBF8A
:1009B000DF91CF911F910F91FF90EF90DF90CF903B
:1009C000BF90AF909F908F900895AC019B0119A2AA
:1009D0008E010F5D1F4F8AE0C82ED12CE12CF12C27
:1009E000CA01B901A70196010E94740B605DF8016C
:1009F00062938F01211531054105510589F790E07A
:100A000080E0309779F2CF010E947F04CBCF2F9204
:100A10003F924F925F926F927F928F929F92AF928E
:100A2000BF92CF92DF92EF92FF920F931F93CF93DB
:100A3000DF93CDB7DEB72F970FB6F894DEBF0FBEAA
:100A4000CDBF8C836F8349833987288748018FB74F
:100A5000F894A0900702B0900802C0900902D090CC
:100A60000A028FBFE114F10421F48CEFE82E82E03A
:100A7000F82E2C81220F2E833981832F90E0432F73
:100A800041954D83132F312C212C1F869B838A8304
:100A900001E0C401B0E0A0E08A879B87AC87BD87F6
:100AA000AA81BB812A163B060CF01AC100933B02B7
:100AB000BC81B0935D0210923C0210925E02D7019D
:100AC000ED91FC910190F081E02D6F81C7010995B6
:100AD00081E00E94D7020E943D012B013C018091E0
:100AE000350281116DC01E87113210F0B0E2BE8751
:100AF00000933502009334022FEF209333021092BB
:100B000032028E85815080933102009310028091D1
:100B100010023E81832B8093100280910F0281305E
:100B200009F098C010920F020E943D012B013C0178
:100B3000809110028093BB0080913702909138021F
:100B4000A0913902B0913A02892B8A2B8B2BA1F00C
:100B50000E943D01209137023091380240913902C4
:100B600050913A02641975098609970926173707C3
:100B70004807590708F445C08091BC0083FDD8CFD1
:100B800045EC4093BC000E943D012B013C0180914B
:100B90003502813009F462C0809132029E85891746
:100BA00018F4A0913202AE87E1E1F2E0A4ECB1E0EA
:100BB00080E02E85821751F191919D938F5FF9CF3F
:100BC0008091370290913802A0913902B0913A0297
:100BD000892B8A2B8B2B09F482CF0E943D01209117
:100BE0003702309138024091390250913A0264192B
:100BF000750986099709261737074807590708F026
:100C00006ECF809136020E94B6021E861092E901D4
:100C10003E853093E801D701ED91FC910084F18588
:100C2000E02DC7010995892B09F453C08114910463
:100C3000B9F5D701ED91FC910284F385E02DC70150
:100C40000995E885F985BF85EB0FF11D8083BF5FAE
:100C5000BF87E1CF55EE5093BC0095CF809137020E
:100C600090913802A0913902B0913A02892B8A2BD7
:100C70008B2B09F48CCF0E943D01209137023091DB
:100C800038024091390250913A0264197509860977
:100C90009709261737074807590708F078CFB1CFCB
:100CA0002FB7F8948091070290910802A091090251
:100CB000B0910A022FBF8A199B09AC09BD092A8588
:100CC0003B854C855D8582179307A407B50708F41B
:100CD000B0CF4A815B81240E351E5D81150FE0CEB9
:100CE00081149104E1F02FB7F8948091070290915C
:100CF0000802A0910902B0910A022FBF8A199B092C
:100D0000AC09BD09B12CA12C88159905AA05BB0514
:100D100030F08F859981891710F4AFEFAF878F85F9
:100D20002F960FB6F894DEBF0FBECDBFDF91CF91E7
:100D30001F910F91FF90EF90DF90CF90BF90AF90F9
:100D40009F908F907F906F905F904F903F902F90EB
:100D500008957F928F929F92AF92BF92CF92DF922F
:100D6000EF92FF920F931F93CF93DF9300D0CDB7F5
:100D7000DEB7A82E962E742E822EB02E08EE13E02B
:100D80009E012E5F3F4F41E00E9407058823C1F17D
:100D9000872D8819990BAC014F5F5F4F81E090E080
:100DA00002C0880F991F8A94E2F70197042E01C0B0
:100DB000880F0A94EAF72B2D01C0220F4A95EAF713
:100DC000B82EB0949A81B92282238B298A83898391
:100DD0009701AE014F5F5F4F692D8A2D0E94C703B7
:100DE0000F900F90DF91CF911F910F91FF90EF9097
:100DF000DF90CF90BF90AF909F908F907F9008959D
:100E000080E0EECF85ED8093BC0080913702909119
:100E10003802A0913902B0913A020796A11DB11D86
:100E200023E0B695A795979587952A95D1F72091B8
:100E3000BC0024FD03C01092350208954091370292
:100E4000509138026091390270913A02452B462B3D
:100E5000472B69F30097A105B10541F02AE22A95D5
:100E6000F1F700C00197A109B109E1CF80913602E5
:100E70000C94B6021F920F920FB60F9211242F936B
:100E80003F938F939F93AF93BF938091070290916D
:100E90000802A0910902B0910A023091060223E0F3
:100EA000230F2D3758F50196A11DB11D2093060281
:100EB0008093070290930802A0930902B0930A025C
:100EC00080910B0290910C02A0910D02B0910E0244
:100ED0000196A11DB11D80930B0290930C02A0936B
:100EE0000D02B0930E02BF91AF919F918F913F91F0
:100EF0002F910F900FBE0F901F90189526E8230F8B
:100F00000296A11DB11DD2CF1F920F920FB60F9264
:100F100011242F933F934F935F936F937F938F93FE
:100F20009F93AF93BF93EF93FF938FE592E00E945F
:100F3000E201FF91EF91BF91AF919F918F917F91CE
:100F40006F915F914F913F912F910F900FBE0F9036
:100F50001F9018951F920F920FB60F9211242F9386
:100F60008F939F93EF93FF93E0916F02F091700244
:100F70008081E0917502F091760282FD1BC0908124
:100F8000809178028F5F8F7320917902821741F0F0
:100F9000E0917802F0E0E15AFD4F958F809378025E
:100FA000FF91EF919F918F912F910F900FBE0F9016
:100FB0001F9018958081F4CF1F920F920FB60F9259
:100FC00011242F933F934F935F936F937F938F934E
:100FD0009F93AF93BF93EF93FF938091B900887F66
:100FE000803609F44AC0F0F5883209F4A7C018F534
:100FF000803109F49BC0B8F4882309F4F9C0883023
:1010000009F494C0FF91EF91BF91AF919F918F919F
:101010007F916F915F914F913F912F910F900FBEF4
:101020000F901F901895883109F488C0803251F7CD
:101030008093330214C0803409F49DC040F480339F
:10104000B9F38833F9F68093330285ECB0C080356C
:1010500009F485C0883509F496C0883499F60E9451
:101060000207D0CF883909F48CC038F5883729F0C9
:1010700050F4883611F0803729F683E080933502EA
:101080001092C30157C0883809F47BC0803919F029
:10109000803809F0B7CF8091C301803208F071C069
:1010A000E091C30181E08E0F8093C3018091BB006A
:1010B000F0E0ED55FE4F80833DC0803B39F0E0F419
:1010C000803A09F479C0883A09F09CCF84E0809393
:1010D00035021092A2011092A101E091E601F09177
:1010E000E70109958091A10181110FC081E08093F2
:1010F000A1011092810109C0803C09F4A6CF883C6F
:1011000009F4A3CF883B09F07DCFE091A20181E0F3
:101110008E0F8093A201F0E0EF57FE4F8081809305
:10112000BB009091A2018091A10129C08091100281
:101130008093BB0085EC8093BC0064CF9091320219
:1011400080913102981758F5E091320281E08E0FBC
:1011500080933202F0E0EF5EFD4F8081E9CFE091B5
:10116000320281E08E0F809332028091BB00F0E06A
:10117000EF5EFD4F8083909132028091310298178B
:10118000C8F285E8D8CFE091320281E08E0F8093DB
:1011900032028091BB00F0E0EF5EFD4F80838091D2
:1011A000340281115CCF81E080930F0284EA809346
:1011B000BC001092350226CF85EC8093BC001092C3
:1011C00035028091C301803230F4E091C301F0E038
:1011D000ED55FE4F10826091C30170E0E091E40193
:1011E000F091E50183EA91E009951092C3010ACFDD
:1011F0001092330234CFEFE5F2E01382128288EED0
:1012000093E0A0E0B0E084839583A683B78324E0D5
:1012100031E03183208325EC30E03587248724ECCE
:1012200030E03787268720EC30E0318B208B21ECB3
:1012300030E0338B228B22EC30E0358B248B26EC94
:1012400030E0378B268B118E128E138E148EECEFBE
:10125000F2E01382128284839583A683B78386E1AA
:1012600091E091838083E8E0F3E088E68083128256
:10127000118288EF9AE2A0E0B0E0818B928BA38B81
:10128000B48B0895CF93DF9300D0CDB7DEB77894B9
:1012900084B5826084BD84B5816084BD85B582607B
:1012A00085BD85B5816085BD80916E00816080932C
:1012B0006E00109281008091810082608093810095
:1012C00080918100816080938100809180008160A5
:1012D000809380008091B10084608093B100809100
:1012E000B00081608093B00080917A008460809328
:1012F0007A0080917A00826080937A0080917A00EF
:10130000816080937A0080917A00806880937A006F
:101310001092C100E0916F02F091700282E0808330
:10132000E0916B02F0916C021082E0916D02F091FD
:101330006E0280E1808310927702E0917302F09157
:10134000740286E08083E0917102F09172028081E4
:1013500080618083E0917102F091720280818860E7
:101360008083E0917102F0917202808180688083B5
:10137000E0917102F091720280818F7D80831092E2
:10138000E9011092E80110923C0210925E020E9464
:10139000980282E691E09093E7018093E60183E66C
:1013A00091E09093E5018093E401E0900903F090CF
:1013B0000A0301E023E042E06BE6809108030E940B
:1013C000A906E0900903F0900A0300E022E044E05F
:1013D0006BE1809108030E94A90680E090E0AAE7F3
:1013E000BCE38093210390932203A0932303B09343
:1013F0002403E0900903F0900A0322E044E06CE14A
:10140000809108030E94A90680E090E0A0E0B9E383
:1014100080931D0390931E03A0931F03B09320039A
:10142000A0900903B0900A03D0900803750108EE5C
:1014300013E09E012F5F3F4F41E06BE68D2D0E9430
:10144000070589818F7B89838A839501AE014E5F71
:101450005F4F6BE68D2D0E94C703E0900903F0906B
:101460000A0306E023E042E06AE1809108030E945B
:10147000A906E0900903F0900A0300E022E044E0AE
:101480006CE1809108030E94A90662E087E00E9457
:101490000C0162E088E00E940C0161E089E00E949A
:1014A0000C01ECEEF1E01192119222E0E030F20733
:1014B000D1F7E0900903F0900A0308EE13E09E01D3
:1014C0002F5F3F4F41E065E7809108030E940705C9
:1014D000882339F089818E7790E095958795809360
:1014E0000B0380910B03843309F4D3C08C3009F4CF
:1014F000D0C060E089E00E94DE0084E291E00E94BA
:101500007F0483E491E00E947F042AE0822E912CE4
:10151000A12CB12CE0900903F0900A0308EE13E02F
:101520002BE033E04EE06BE3809108030E94070557
:10153000E0900D03F0900E03FE24EF24FE2487E0DC
:101540000E94B5008C0188E00E94B5007724739456
:10155000012B09F0712C11E0892B09F010E020918A
:10156000000230910102F901EE0FFF1FE451FE4F1E
:1015700020803180032C000C440855088091020221
:1015800090910302A0910402B0910502AC01BD014B
:1015900042195309640975091A012B01F182E0828D
:1015A000B701FF0C880B990B620D731D841D951DEF
:1015B00060930202709303028093040290930502E9
:1015C0002F5F3F4F2A3031050CF06AC03093010283
:1015D00020930002A50194010E94550B3093EB016A
:1015E0002093EA0188E691E00E947F046091EA017D
:1015F0007091EB01072E000C880B990B0E948C0454
:101600008CE691E00E947F04672D70E090E080E01E
:101610000E948C0486E791E00E947F04612F70E0B5
:1016200090E080E00E948C0483E491E00E947F04BB
:101630000E943D016B017C0184E1482E512C612CFC
:10164000712C0E943D016C197D098E099F09683E2D
:10165000734081059105A8F351E0451A51086108CE
:10166000710868EEC60E63E0D61EE11CF11C411441
:1016700051046104710429F740E050E0452B09F45E
:1016800049CF0E94CE01882309F444CF0E94000074
:1016900041CF61E089E00E94DE0086E491E02FCF37
:1016A000109201021092000295CF052E97FB1EF4B6
:1016B00000940E946C0B57FD07D00E94740B07FC2E
:1016C00003D04EF40C946C0B5095409530952195B9
:1016D0003F4F4F4F5F4F089590958095709561955E
:1016E0007F4F8F4F9F4F0895A1E21A2EAA1BBB1B5D
:1016F000FD010DC0AA1FBB1FEE1FFF1FA217B307DE
:10170000E407F50720F0A21BB30BE40BF50B661FF3
:10171000771F881F991F1A9469F7609570958095B7
:1017200090959B01AC01BD01CF010895EE0FFF1F05
:101730000590F491E02D0994F894FFCF000000008B
:101740000402640191015102C201A001B401000030
:1017500000004D0420047C04F60319040604F7037A
:1017600046616C6861206E6120636F6E6578C3A30B
:101770006F20636F6D204D5055363035302E000D83
:101780000A004D5055363035302066756E63696FEE
:101790006E616E646F20636F72726574616D656EE9
:1017A00074652E0061793A002C627574746F6E3125
:0C17B0003A002C627574746F6E323A00BF
:107E0000112484B714BE81FFF0D085E080938100F7
:107E100082E08093C00088E18093C10086E0809377
:107E2000C20080E18093C4008EE0C9D0259A86E02C
:107E300020E33CEF91E0309385002093840096BBD3
:107E4000B09BFECF1D9AA8958150A9F7CC24DD24C4
:107E500088248394B5E0AB2EA1E19A2EF3E0BF2EE7
:107E6000A2D0813461F49FD0082FAFD0023811F036
:107E7000013811F484E001C083E08DD089C08234E0
:107E800011F484E103C0853419F485E0A6D080C0E4
:107E9000853579F488D0E82EFF2485D0082F10E0AE
:107EA000102F00270E291F29000F111F8ED06801E7
:107EB0006FC0863521F484E090D080E0DECF843638
:107EC00009F040C070D06FD0082F6DD080E0C81688
:107ED00080E7D80618F4F601B7BEE895C0E0D1E017
:107EE00062D089930C17E1F7F0E0CF16F0E7DF06D8
:107EF00018F0F601B7BEE89568D007B600FCFDCFD4
:107F0000A601A0E0B1E02C9130E011968C91119780
:107F100090E0982F8827822B932B1296FA010C0160
:107F200087BEE89511244E5F5F4FF1E0A038BF0790
:107F300051F7F601A7BEE89507B600FCFDCF97BE46
:107F4000E89526C08437B1F42ED02DD0F82E2BD052
:107F50003CD0F601EF2C8F010F5F1F4F84911BD097
:107F6000EA94F801C1F70894C11CD11CFA94CF0C13
:107F7000D11C0EC0853739F428D08EE10CD085E9AC
:107F80000AD08FE07ACF813511F488E018D01DD067
:107F900080E101D065CF982F8091C00085FFFCCF94
:107FA0009093C60008958091C00087FFFCCF809118
:107FB000C00084FD01C0A8958091C6000895E0E648
:107FC000F0E098E1908380830895EDDF803219F02E
:107FD00088E0F5DFFFCF84E1DECF1F93182FE3DFCA
:107FE0001150E9F7F2DF1F91089580E0E8DFEE27F6
:047FF000FF270994CA
:027FFE00040479
:00000001FF
