:020000040000FA
:100000000C9462000C948A000C948A000C948A0070
:100010000C948A000C948A000C948A000C948A0038
:100020000C948A000C948A000C948A000C948A0028
:100030000C948A000C948A000C948A000C948A0018
:100040000C9433070C948A000C94A3070C947D073E
:100050000C948A000C948A000C948A000C948A00F8
:100060000C94D5070C948A000000000023002600A1
:10007000290000000008000201000003040700003E
:1000800000000000000000000000250028002B00F8
:1000900000000000240027002A00040404040404D3
:1000A0000404020202020202030303030303010227
:1000B00004081020408001020408102001020408F6
:1000C0001020F40811241FBECFEFD8E0DEBFCDBF53
:1000D00011E0A0E0B1E0E6E7F7E102C005900D9283
:1000E000A439B107D9F723E0A4E9B1E001C01D921A
:1000F000A934B207E1F710E0C2E6D0E004C02197CE
:10010000FE010E94B30BC136D107C9F70E943B091B
:100110000C94B90B0C940000CF93DF9390E0FC019A
:10012000E255FF4F249186569F4FFC01849188230E
:10013000C1F090E0880F991FFC01E057FF4FC59177
:10014000D491FC01EA57FF4FA591B4919FB7F89461
:100150003881822F809583238883EC91E22BEC9366
:100160009FBFDF91CF910895833081F028F48130D3
:1001700099F08230A9F008958730A9F08830C9F04D
:100180008430B1F4809180008F7D03C08091800025
:100190008F7780938000089584B58F7784BD08950C
:1001A00084B58F7DFBCF8091B0008F778093B000B6
:1001B00008958091B0008F7DF9CFCF93DF93282FE2
:1001C00030E0F901EE58FF4F8491F901E255FF4FFD
:1001D000D491F901E656FF4FC491CC23A1F08111CF
:1001E0000E94B400EC2FF0E0EE0FFF1FE859FF4F24
:1001F000A591B491EC91ED2381E090E009F480E0C9
:10020000DF91CF91089580E090E0FACF1F93CF93D4
:10021000DF93282F30E0F901EE58FF4F8491F90168
:10022000E255FF4FD491F901E656FF4FC491CC231C
:10023000A9F0162F81110E94B400EC2FF0E0EE0F10
:10024000FF1FEA57FF4FA591B4918FB7F894EC9137
:10025000111108C0D095DE23DC938FBFDF91CF91C1
:100260001F910895DE2BF8CF3FB7F89480912302B9
:1002700090912402A0912502B091260226B5A89B58
:1002800005C02F3F19F00196A11DB11D3FBFBA2F28
:10029000A92F982F8827BC01CD01620F711D811DE8
:1002A000911D42E0660F771F881F991F4A95D1F76D
:1002B000089508950895AF92BF92CF92DF92EF9282
:1002C000FF920F931F93CF93DF936C017B018B0100
:1002D000040F151FEB015E01AE18BF08C017D10750
:1002E00059F06991D601ED91FC910190F081E02DDA
:1002F000C6010995892B79F7C501DF91CF911F912F
:100300000F91FF90EF90DF90CF90BF90AF90089546
:10031000FC01538D448D252F30E0842F90E0821B0B
:10032000930B541710F0CF96089501970895FC0190
:10033000918D828D981761F0A28DAE0FBF2FB11DE8
:100340005D968C91928D9F5F9F73928F90E0089540
:100350008FEF9FEF0895FC01918D828D981731F0FA
:10036000828DE80FF11D858D90E008958FEF9FEF4E
:100370000895FC01918D228D892F90E0805C9F4F24
:10038000821B91098F739927089587E792E00E9455
:10039000B90121E0892B09F420E0822F089580E043
:1003A00090E0892B29F00E94C50181110C94000076
:1003B0000895FC01A48DA80FB92FB11DA35ABF4FFA
:1003C0002C91848D90E001968F739927848FA68954
:1003D000B7892C93A089B1898C91837080648C93A8
:1003E000938D848D981306C00288F389E02D808157
:1003F0008F7D80830895EF92FF920F931F93CF9389
:10040000DF93EC0181E0888F9B8D8C8D98131AC04F
:10041000E889F989808185FF15C09FB7F894EE8936
:10042000FF896083E889F989808183708064808393
:100430009FBF81E090E0DF91CF911F910F91FF90DE
:10044000EF900895F62E0B8D10E00F5F1F4F0F7386
:100450001127E02E8C8D8E110CC00FB607FCFACF41
:10046000E889F989808185FFF5CFCE010E94D90105
:10047000F1CFEB8DEC0FFD2FF11DE35AFF4FF08212
:100480009FB7F8940B8FEA89FB8980818062CFCF78
:10049000CF93DF93EC01888D8823B9F0AA89BB89BB
:1004A000E889F9898C9185FD03C0808186FD0DC0A6
:1004B0000FB607FCF7CF8C9185FFF2CF808185FFC7
:1004C000EDCFCE010E94D901E9CFDF91CF91089500
:1004D0002091B501260F3327331F21323105ECF46B
:1004E00020914D02FC0190E080E0243069F082E030
:1004F0000895A091B5012191AC014B565E4FA40F18
:10050000B52FB11D2C930196861798F38091B501F4
:10051000680F6093B50180E0089581E0089510921E
:100520004D0281E080934C021092270261E082E14B
:100530000E94060161E083E10E940601E9EBF0E020
:1005400080818E7F808380818D7F808388E480930B
:10055000B80085E48093BC000895CF93DF9391E0C9
:10056000909394018823B9F0C091B800D091BA005B
:100570008091BC008A7B8093BC0060E082E10E9495
:10058000060160E083E10E9406010E948F02D09381
:10059000BA00C093B800DF91CF9108958F929F92D7
:1005A000AF92BF92CF92DF92EF92FF920F931F9381
:1005B000CF93DF93D0917602D13208F0D7C0182FB5
:1005C000C09175020E9434016B017C0180914D0243
:1005D00081116BC082E080934D0210934C028FEF2B
:1005E00080934B0210924A02D0934902A5E5B2E0F3
:1005F000E9E2F2E080E0D81391C0109228028091E5
:100600002802CC0FC82BC09328028091270281308A
:1006100009F088C0109227020E9434016B017C010E
:10062000809128028093BB0080914F0290915002EC
:10063000A0915102B0915202892B8A2B8B2BA1F0F1
:100640000E94340100914F021091500220915102FA
:10065000309152026C197D098E099F090617170700
:100660002807390708F442C08091BC0083FDD8CF29
:1006700085EC8093BC000E9434016B017C01809169
:100680004D02823009F450C080914B028F3F09F433
:100690006FC080914B02803209F46CC080914B0294
:1006A000803309F469C084E026C080914F029091A4
:1006B0005002A0915102B0915202892B8A2B8B2BB0
:1006C00009F484CF0E94340180904F029090500230
:1006D000A0905102B09052026C197D098E099F09B9
:1006E00086169706A806B90608F070CF80914E02CC
:1006F0000E94AD0285E01092540210927602109290
:100700005302DF91CF911F910F91FF90EF90DF90F7
:10071000CF90BF90AF909F908F9008959D919193AF
:100720008F5F69CF85EEA5CF80914F0290915002E7
:10073000A0915102B0915202892B8A2B8B2B09F484
:100740009ECF0E94340100914F02109150022091DF
:100750005102309152026C197D098E099F090617CA
:1007600017072807390708F08ACFC0CF81E0C3CF29
:1007700080E0C1CF82E0BFCF83E0BDCF0F931F9356
:10078000CF93DF938A01E901209711F4C4E1D3E00C
:1007900091E090935302809375021092540210924C
:1007A0007602E881F9810190F081E02DCE01099572
:1007B000E881F9810190F081E02DD8016C91CE01A2
:1007C000099581E00E94CE0291E0811190E0892F8D
:1007D000DF91CF911F910F9108950895E091FD0150
:1007E0008091FC01E81730F4F0E0E852FE4F808180
:1007F00090E008958FEF9FEF08959091FD01809113
:10080000FC012FEF3FEF981748F4E92FF0E0E85292
:10081000FE4F208130E09F5F9093FD01C901089554
:100820008091FC019091FD01891B990B0895CF9255
:10083000DF92EF92FF920F931F93CF93DF937C0190
:10084000CB018A0120915302222389F0EB016B0135
:10085000C40ED51ECC15DD0569F06991D701ED9167
:10086000FC910190F081E02DC7010995F3CF642F31
:100870000E946802C801DF91CF911F910F91FF90F4
:10088000EF90DF90CF900895CF93DF931F92CDB775
:10089000DEB76983209153022223F9F0209176027A
:1008A000203258F021E030E0FC013383228390E0D5
:1008B00080E00F90DF91CF91089580915402E82F4E
:1008C000F0E0EB5AFD4F998190838F5F8093540243
:1008D0008093760281E090E0ECCF61E0CE0101965A
:1008E0000E946802F7CF90E080E00895FC0101903B
:1008F0000020E9F73197AF01481B590BBC0187E78E
:1009000092E00C945B018F929F92AF92BF92CF9234
:10091000DF92EF92FF920F931F93CF93DF93CDB7A8
:10092000DEB7A1970FB6F894DEBF0FBECDBF6C0146
:10093000990FEE08FF08F7FE41C06DE287E792E0ED
:100940000E94FB018C0122273327A9012C193D09A4
:100950004E095F0919A2CE0181967C019AE0892E89
:10096000912CA12CB12CCA01B901A50194010E94BE
:10097000910B605DF70162937F01211531054105FF
:10098000510589F790E080E0309719F0CF010E947F
:100990007604800F911FA1960FB6F894DEBF0FBEAC
:1009A000CDBFDF91CF911F910F91FF90EF90DF901E
:1009B000CF90BF90AF909F908F900895A701960120
:1009C00019A28E010F5D1F4F8AE0C82ED12CE12C99
:1009D000F12CCA01B901A70196010E94910B605D3B
:1009E000F80162938F01211531054105510589F701
:1009F00090E080E0309779F2CF010E947604CBCF6F
:100A00002F923F924F925F926F927F928F929F921E
:100A1000AF92BF92CF92DF92EF92FF920F931F930C
:100A2000CF93DF93CDB7DEB72F970FB6F894DEBF25
:100A30000FBECDBF8C836F834983398728874801D8
:100A40008FB7F894A0901F02B0902002C0902102AE
:100A5000D09022028FBFE114F10421F484E1E82E4A
:100A600083E0F82E2C81220F2E833981832F90E092
:100A7000432F41954D83132F312C212C1F869B83AF
:100A80008A8301E0C401B0E0A0E08A879B87AC873D
:100A9000BD87AA81BB812A163B060CF01AC10093C0
:100AA0005302BC81B09375021092540210927602E8
:100AB000D701ED91FC910190F081E02D6F81C7018C
:100AC000099581E00E94CE020E9434012B013C0175
:100AD00080914D0281116DC01E87113210F0B0E27D
:100AE000BE8700934D0200934C022FEF20934B02E0
:100AF00010924A028E858150809349020093280209
:100B0000809128023E81832B8093280280912702C6
:100B1000813009F098C0109227020E9434012B0105
:100B20003C01809128028093BB0080914F029091FC
:100B30005002A0915102B0915202892B8A2B8B2B2B
:100B4000A1F00E94340120914F0230915002409157
:100B500051025091520264197509860997092617A6
:100B600037074807590708F445C08091BC0083FD4A
:100B7000D8CF45EC4093BC000E9434012B013C01CE
:100B800080914D02813009F462C080914A029E85B5
:100B9000891718F4A0914A02AE87E9E2F2E0A8EDC5
:100BA000B1E080E02E85821751F191919D938F5F86
:100BB000F9CF80914F0290915002A0915102B091D3
:100BC0005202892B8A2B8B2B09F482CF0E9434018D
:100BD00020914F02309150024091510250915202A7
:100BE00064197509860997092617370748075907B1
:100BF00008F06ECF80914E020E94AD021E861092C8
:100C0000FD013E853093FC01D701ED91FC910084FC
:100C1000F185E02DC7010995892B09F453C0811492
:100C20009104B9F5D701ED91FC910284F385E02D93
:100C3000C7010995E885F985BF85EB0FF11D808314
:100C4000BF5FBF87E1CF55EE5093BC0095CF809139
:100C50004F0290915002A0915102B0915202892B03
:100C60008A2B8B2B09F48CCF0E94340120914F02E8
:100C7000309150024091510250915202641975090D
:100C800086099709261737074807590708F078CFCC
:100C9000B1CF2FB7F89480911F0290912002A091BC
:100CA0002102B09122022FBF8A199B09AC09BD090C
:100CB0002A853B854C855D8582179307A407B50778
:100CC00008F4B0CF4A815B81240E351E5D81150F7B
:100CD000E0CE81149104E1F02FB7F89480911F02C7
:100CE00090912002A0912102B09122022FBF8A1977
:100CF0009B09AC09BD09B12CA12C88159905AA0541
:100D0000BB0530F08F859981891710F4AFEFAF875D
:100D10008F852F960FB6F894DEBF0FBECDBFDF9143
:100D2000CF911F910F91FF90EF90DF90CF90BF90E8
:100D3000AF909F908F907F906F905F904F903F907B
:100D40002F9008957F928F929F92AF92BF92CF92F1
:100D5000DF92EF92FF920F931F93CF93DF9300D018
:100D6000CDB7DEB7A82E962E742E822EB02E08EEAA
:100D700013E09E012E5F3F4F41E00E940005882353
:100D8000C1F1872D8819990BAC014F5F5F4F81E04E
:100D900090E002C0880F991F8A94E2F70197042E11
:100DA00001C0880F0A94EAF72B2D01C0220F4A9543
:100DB000EAF7B82EB0949A81B92282238B298A83CC
:100DC00089839701AE014F5F5F4F692D8A2D0E9485
:100DD000BE030F900F90DF91CF911F910F91FF9065
:100DE000EF90DF90CF90BF90AF909F908F907F90CB
:100DF000089580E0EECF85ED8093BC0080914F0296
:100E000090915002A0915102B09152020796A11DFB
:100E1000B11D23E0B695A795979587952A95D1F7AB
:100E20002091BC0024FD03C010924D020895409112
:100E30004F02509150026091510270915202452B25
:100E4000462B472B69F30097A105B10541F02AE233
:100E50002A95F1F700C00197A109B109E1CF80916E
:100E60004E020C94AD021F920F920FB60F921124F6
:100E70002F933F938F939F93AF93BF9380911F02C4
:100E800090912002A0912102B091220230911E0285
:100E900023E0230F2D3758F50196A11DB11D209396
:100EA0001E0280931F0290932002A0932102B09310
:100EB00022028091230290912402A0912502B091F8
:100EC00026020196A11DB11D809323029093240256
:100ED000A0932502B0932602BF91AF919F918F916D
:100EE0003F912F910F900FBE0F901F90189526E8FD
:100EF000230F0296A11DB11DD2CF1F920F920FB6E4
:100F00000F9211242F933F934F935F936F937F938F
:100F10008F939F93AF93BF93EF93FF9387E792E0F5
:100F20000E94D901FF91EF91BF91AF919F918F9155
:100F30007F916F915F914F913F912F910F900FBED5
:100F40000F901F9018951F920F920FB60F921124B9
:100F50002F938F939F93EF93FF93E0918702F091EC
:100F600088028081E0918D02F0918E0282FD1BC08B
:100F70009081809190028F5F8F73209191028217F0
:100F800041F0E0919002F0E0E958FD4F958F809399
:100F90009002FF91EF919F918F912F910F900FBE33
:100FA0000F901F9018958081F4CF1F920F920FB66B
:100FB0000F9211242F933F934F935F936F937F93DF
:100FC0008F939F93AF93BF93EF93FF938091B9005B
:100FD000887F803609F44AC0F0F5883209F4A7C04A
:100FE00018F5803109F49BC0B8F4882309F4F9C0DE
:100FF000883009F494C0FF91EF91BF91AF919F9118
:101000008F917F916F915F914F913F912F910F90B1
:101010000FBE0F901F901895883109F488C0803258
:1010200051F780934B0214C0803409F49DC040F402
:101030008033B9F38833F9F680934B0285ECB0C066
:10104000803509F485C0883509F496C0883499F64E
:101050000E94FB06D0CF883909F48CC038F5883758
:1010600029F050F4883611F0803729F683E0809318
:101070004D021092D70157C0883809F47BC08039DF
:1010800019F0803809F0B7CF8091D701803208F08D
:1010900071C0E091D70181E08E0F8093D7018091DC
:1010A000BB00F0E0E954FE4F80833DC0803B39F047
:1010B000E0F4803A09F479C0883A09F09CCF84E0E2
:1010C00080934D021092B6011092B501E091FA01A1
:1010D000F091FB0109958091B50181110FC081E06C
:1010E0008093B5011092950109C0803C09F4A6CF08
:1010F000883C09F4A3CF883B09F07DCFE091B6018D
:1011000081E08E0F8093B601F0E0EB56FE4F8081B8
:101110008093BB009091B6018091B50129C0809168
:1011200028028093BB0085EC8093BC0064CF909133
:101130004A0280914902981758F5E0914A0281E0ED
:101140008E0F80934A02F0E0E75DFD4F8081E9CF8A
:10115000E0914A0281E08E0F80934A028091BB00A9
:10116000F0E0E75DFD4F808390914A028091490253
:101170009817C8F285E8D8CFE0914A0281E08E0F37
:1011800080934A028091BB00F0E0E75DFD4F8083D1
:1011900080914C0281115CCF81E08093270284EA28
:1011A0008093BC0010924D0226CF85EC8093BC004A
:1011B00010924D028091D701803230F4E091D70136
:1011C000F0E0E954FE4F10826091D70170E0E091A9
:1011D000F801F091F90187EB91E009951092D701A0
:1011E0000ACF10924B0234CFE7E7F2E0138212826B
:1011F00088EE93E0A0E0B0E084839583A683B78374
:1012000024E031E03183208325EC30E035872487EA
:1012100024EC30E03787268720EC30E0318B208BC0
:1012200021EC30E0338B228B22EC30E0358B248BA9
:1012300026EC30E0378B268B118E128E138E148E97
:10124000E4E1F3E01382128284839583A683B7835B
:1012500086E191E091838083E0E2F3E088E6808399
:101260001282118288EF9AE2A0E0B0E0818B928B2B
:10127000A38BB48B0895CF93DF9300D0CDB7DEB7A7
:10128000789484B5826084BD84B5816084BD85B561
:10129000826085BD85B5816085BD80916E0081606D
:1012A00080936E0010928100809181008260809313
:1012B0008100809181008160809381008091800015
:1012C0008160809380008091B10084608093B10040
:1012D0008091B00081608093B00080917A0084603A
:1012E00080937A0080917A00826080937A00809166
:1012F0007A00816080937A0080917A008068809380
:101300007A001092C100E0918702F091880282E099
:101310008083E0918302F09184021082E091850243
:10132000F091860280E1808310928F02E0918B021F
:10133000F0918C0286E08083E0918902F0918A022C
:10134000808180618083E0918902F0918A028081AE
:1013500088608083E0918902F0918A0280818068B0
:101360008083E0918902F0918A0280818F7D808361
:101370001092FD011092FC0110925402109276021C
:101380000E948F0289E591E09093FB018093FA011E
:101390008AE591E09093F9018093F801E0902103B0
:1013A000F090220301E023E042E06BE6809120030D
:1013B0000E94A206E0902103F090220300E022E0C8
:1013C00044E06BE1809120030E94A20680E090E05F
:1013D000AAE7BCE38093390390933A03A0933B03BD
:1013E000B0933C03E0902103F090220322E044E01C
:1013F0006CE1809120030E94A20680E090E0A0E0D2
:10140000B9E38093350390933603A0933703B093E9
:101410003803A0902103B0902203D09020037501DF
:1014200008EE13E09E012F5F3F4F41E06BE68D2DEC
:101430000E94000589818F7B89838A839501AE0193
:101440004E5F5F4F6BE68D2D0E94BE03E09021033F
:10145000F090220306E023E042E06AE1809120035D
:101460000E94A206E0902103F090220300E022E017
:1014700044E06CE1809120030E94A20684E00E9477
:101480008C0085E00E948C0082E00E948C0083E04A
:101490000E948C00E0E0F2E084E192E0119211926F
:1014A0008E179F07D9F7E0902103F090220308EEF2
:1014B00013E09E012F5F3F4F41E065E780912003DD
:1014C0000E940005882339F089818E7790E09595F8
:1014D00087958093230380912303843309F4FAC012
:1014E0008C3009F4F7C084E291E00E94760483E432
:1014F00091E00E9476042AE0422E512C612C712C3E
:1015000030E0232E30E0332EE0902103F0902203D0
:1015100008EE13E023E233E04EE06BE3809120031A
:101520000E94000500912503109126031027012732
:10153000102784E00E94DD005C0185E00E94DD0050
:101540006C0182E00E94DD007C0183E00E94DD00EE
:10155000AC0191E0AB2809F090E0A92EB12C91E00C
:10156000CD2809F090E0892E912C21E030E0EF2881
:1015700011F030E020E030931D0220931C0221E0A6
:1015800030E0452B11F030E020E030931B02209337
:101590001A022091140230911502F901EE0FFF1F7B
:1015A000E050FE4F80819181092E000CAA0BBB0BED
:1015B0004091160250911702609118027091190221
:1015C0006A017B01C81AD90AEA0AFB0A118300835F
:1015D000B801110F880B990B6C0D7D1D8E1D9F1D81
:1015E0006093160270931702809318029093190269
:1015F0002F5F3F4F2A3031050CF06FC0309315023A
:1016000020931402A30192010E94720B3093FF01F8
:101610002093FE0188E691E00E9476048091FE010D
:101620009091FF010E9483048CE691E00E94760471
:10163000C5010E94830486E791E00E947604C401FC
:101640000E94830480E891E00E94760480911C024D
:1016500090911D020E9483048AE891E00E94760422
:1016600080911A0290911B020E94830483E491E00E
:101670000E9476040E9434014B015C0184E1C82E73
:10168000D12CE12CF12C0E943401681979098A09C6
:101690009B09683E734081059105A8F321E0C21AB9
:1016A000D108E108F10888EE880E83E0981EA11C9D
:1016B000B11CC114D104E104F10429F7211431044F
:1016C00009F422CF0E94C501882309F41DCF0E948E
:1016D00000001ACF86E491E008CF10921502109214
:1016E000140290CF052E97FB1EF400940E94890BE4
:1016F00057FD07D00E94910B07FC03D04EF40C94C9
:10170000890B50954095309521953F4F4F4F5F4F36
:10171000089590958095709561957F4F8F4F9F4F5D
:101720000895A1E21A2EAA1BBB1BFD010DC0AA1F22
:10173000BB1FEE1FFF1FA217B307E407F50720F03A
:10174000A21BB30BE40BF50B661F771F881F991FB5
:101750001A9469F760957095809590959B01AC01FE
:10176000BD01CF010895EE0FFF1F0590F491E02D0C
:101770000994F894FFCF00000000FB015B01880191
:101780004802B9019701AB010000000044041704AE
:101790007304ED031004FD03EE0346616C686120E1
:1017A0006E6120636F6E6578C3A36F20636F6D20D9
:1017B0004D5055363035302E000D0A004D505536FF
:1017C0003035302066756E63696F6E616E646F20B0
:1017D000636F72726574616D656E74652E006179F8
:1017E0003A002C627574746F6E313A002C62757415
:1017F000746F6E323A002C627574746F6E333A00F7
:0A1800002C627574746F6E343A00A8
:107E0000112484B714BE81FFF0D085E080938100F7
:107E100082E08093C00088E18093C10086E0809377
:107E2000C20080E18093C4008EE0C9D0259A86E02C
:107E300020E33CEF91E0309385002093840096BBD3
:107E4000B09BFECF1D9AA8958150A9F7CC24DD24C4
:107E500088248394B5E0AB2EA1E19A2EF3E0BF2EE7
:107E6000A2D0813461F49FD0082FAFD0023811F036
:107E7000013811F484E001C083E08DD089C08234E0
:107E800011F484E103C0853419F485E0A6D080C0E4
:107E9000853579F488D0E82EFF2485D0082F10E0AE
:107EA000102F00270E291F29000F111F8ED06801E7
:107EB0006FC0863521F484E090D080E0DECF843638
:107EC00009F040C070D06FD0082F6DD080E0C81688
:107ED00080E7D80618F4F601B7BEE895C0E0D1E017
:107EE00062D089930C17E1F7F0E0CF16F0E7DF06D8
:107EF00018F0F601B7BEE89568D007B600FCFDCFD4
:107F0000A601A0E0B1E02C9130E011968C91119780
:107F100090E0982F8827822B932B1296FA010C0160
:107F200087BEE89511244E5F5F4FF1E0A038BF0790
:107F300051F7F601A7BEE89507B600FCFDCF97BE46
:107F4000E89526C08437B1F42ED02DD0F82E2BD052
:107F50003CD0F601EF2C8F010F5F1F4F84911BD097
:107F6000EA94F801C1F70894C11CD11CFA94CF0C13
:107F7000D11C0EC0853739F428D08EE10CD085E9AC
:107F80000AD08FE07ACF813511F488E018D01DD067
:107F900080E101D065CF982F8091C00085FFFCCF94
:107FA0009093C60008958091C00087FFFCCF809118
:107FB000C00084FD01C0A8958091C6000895E0E648
:107FC000F0E098E1908380830895EDDF803219F02E
:107FD00088E0F5DFFFCF84E1DECF1F93182FE3DFCA
:107FE0001150E9F7F2DF1F91089580E0E8DFEE27F6
:047FF000FF270994CA
:027FFE00040479
:00000001FF
