:020000040000FA
:100000000C9462000C948A000C948A000C948A0070
:100010000C948A000C948A000C948A000C948A0038
:100020000C948A000C948A000C948A000C948A0028
:100030000C948A000C948A000C948A000C948A0018
:100040000C9431070C948A000C94A1070C947B0744
:100050000C948A000C948A000C948A000C948A00F8
:100060000C94D3070C948A000000000023002600A3
:10007000290000000008000201000003040700003E
:1000800000000000000000000000250028002B00F8
:1000900000000000240027002A00040404040404D3
:1000A0000404020202020202030303030303010227
:1000B00004081020408001020408102001020408F6
:1000C0001020F20811241FBECFEFD8E0DEBFCDBF55
:1000D00011E0A0E0B1E0E0EBF6E102C005900D9286
:1000E000A034B107D9F722E0A0E4B1E001C01D922D
:1000F000A13FB207E1F710E0C2E6D0E004C02197CB
:10010000FE010E94500BC136D107C9F70E94390980
:100110000C94560B0C940000CF93DF9390E0FC01FD
:10012000E255FF4F249186569F4FFC01849188230E
:10013000C1F090E0880F991FFC01E057FF4FC59177
:10014000D491FC01EA57FF4FA591B4919FB7F89461
:100150003881822F809583238883EC91E22BEC9366
:100160009FBFDF91CF910895833081F028F48130D3
:1001700099F08230A9F008958730A9F08830C9F04D
:100180008430B1F4809180008F7D03C08091800025
:100190008F7780938000089584B58F7784BD08950C
:1001A00084B58F7DFBCF8091B0008F778093B000B6
:1001B00008958091B0008F7DF9CFCF93DF93282FE2
:1001C00030E0F901EE58FF4F8491F901E255FF4FFD
:1001D000D491F901E656FF4FC491CC23A1F08111CF
:1001E0000E94B400EC2FF0E0EE0FFF1FE859FF4F24
:1001F000A591B491EC91ED2381E090E009F480E0C9
:10020000DF91CF91089580E090E0FACF1F93CF93D4
:10021000DF93282F30E0F901EE58FF4F8491F90168
:10022000E255FF4FD491F901E656FF4FC491CC231C
:10023000A9F0162F81110E94B400EC2FF0E0EE0F10
:10024000FF1FEA57FF4FA591B4918FB7F894EC9137
:10025000111108C0D095DE23DC938FBFDF91CF91C1
:100260001F910895DE2BF8CF3FB7F8948091CB0112
:100270009091CC01A091CD01B091CE0126B5A89B63
:1002800005C02F3F19F00196A11DB11D3FBFBA2F28
:10029000A92F982F8827BC01CD01620F711D811DE8
:1002A000911D42E0660F771F881F991F4A95D1F76D
:1002B000089508950895AF92BF92CF92DF92EF9282
:1002C000FF920F931F93CF93DF936C017B018B0100
:1002D000040F151FEB015E01AE18BF08C017D10750
:1002E00059F06991D601ED91FC910190F081E02DDA
:1002F000C6010995892B79F7C501DF91CF911F912F
:100300000F91FF90EF90DF90CF90BF90AF90089546
:10031000FC01538D448D252F30E0842F90E0821B0B
:10032000930B541710F0CF96089501970895FC0190
:10033000918D828D981761F0A28DAE0FBF2FB11DE8
:100340005D968C91928D9F5F9F73928F90E0089540
:100350008FEF9FEF0895FC01918D828D981731F0FA
:10036000828DE80FF11D858D90E008958FEF9FEF4E
:100370000895FC01918D228D892F90E0805C9F4F24
:10038000821B91098F73992708958FE192E00E9453
:10039000B90121E0892B09F420E0822F089580E043
:1003A00090E0892B29F00E94C50181110C94000076
:1003B0000895FC01A48DA80FB92FB11DA35ABF4FFA
:1003C0002C91848D90E001968F739927848FA68954
:1003D000B7892C93A089B1898C91837080648C93A8
:1003E000938D848D981306C00288F389E02D808157
:1003F0008F7D80830895EF92FF920F931F93CF9389
:10040000DF93EC0181E0888F9B8D8C8D98131AC04F
:10041000E889F989808185FF15C09FB7F894EE8936
:10042000FF896083E889F989808183708064808393
:100430009FBF81E090E0DF91CF911F910F91FF90DE
:10044000EF900895F62E0B8D10E00F5F1F4F0F7386
:100450001127E02E8C8D8E110CC00FB607FCFACF41
:10046000E889F989808185FFF5CFCE010E94D90105
:10047000F1CFEB8DEC0FFD2FF11DE35AFF4FF08212
:100480009FB7F8940B8FEA89FB8980818062CFCF78
:10049000CF93DF93EC01888D8823B9F0AA89BB89BB
:1004A000E889F9898C9185FD03C0808186FD0DC0A6
:1004B0000FB607FCF7CF8C9185FFF2CF808185FFC7
:1004C000EDCFCE010E94D901E9CFDF91CF91089500
:1004D00020916101260F3327331F21323105ECF4BF
:1004E0002091F501FC0190E080E0243069F082E089
:1004F0000895A09161012191AC014F5B5E4FA40F63
:10050000B52FB11D2C930196861798F38091610148
:10051000680F6093610180E0089581E00895109272
:10052000F50181E08093F4011092CF0161E082E156
:100530000E94060161E083E10E940601E9EBF0E020
:1005400080818E7F808380818D7F808388E480930B
:10055000B80085E48093BC000895CF93DF9391E0C9
:10056000909340018823B9F0C091B800D091BA00AF
:100570008091BC008A7B8093BC0060E082E10E9495
:10058000060160E083E10E9406010E948F02D09381
:10059000BA00C093B800DF91CF9108958F929F92D7
:1005A000AF92BF92CF92DF92EF92FF920F931F9381
:1005B000CF93DF93D0911E02D13208F0D7C0182F0D
:1005C000C0911D020E9434016B017C018091F501F4
:1005D00081116BC082E08093F5011093F4018FEFDD
:1005E0008093F3011092F201D093F101ADEFB1E0ED
:1005F000E1EDF1E080E0D81391C01092D00180913C
:10060000D001CC0FC82BC093D0018091CF01813095
:1006100009F088C01092CF010E9434016B017C0167
:100620008091D0018093BB008091F7019091F801F7
:10063000A091F901B091FA01892B8A2B8B2BA1F0A3
:100640000E9434010091F7011091F8012091F90105
:100650003091FA016C197D098E099F090617170759
:100660002807390708F442C08091BC0083FDD8CF29
:1006700085EC8093BC000E9434016B017C01809169
:10068000F501823009F450C08091F3018F3F09F4E5
:100690006FC08091F301803209F46CC08091F30146
:1006A000803309F469C084E026C08091F7019091FD
:1006B000F801A091F901B091FA01892B8A2B8B2BBB
:1006C00009F484CF0E9434018090F7019090F801E2
:1006D000A090F901B090FA016C197D098E099F096B
:1006E00086169706A806B90608F070CF8091F60125
:1006F0000E94AD0285E01092FC0110921E02109241
:10070000FB01DF91CF911F910F91FF90EF90DF9050
:10071000CF90BF90AF909F908F9008959D919193AF
:100720008F5F69CF85EEA5CF8091F7019091F80199
:10073000A091F901B091FA01892B8A2B8B2B09F436
:100740009ECF0E9434010091F7011091F801209191
:10075000F9013091FA016C197D098E099F0906177C
:1007600017072807390708F08ACFC0CF81E0C3CF29
:1007700080E0C1CF82E0BFCF83E0BDCF0F931F9356
:10078000CF93DF938A01E901209711F4CCEBD2E0FB
:1007900091E09093FB0180931D021092FC01109256
:1007A0001E02E881F9810190F081E02DCE010995CA
:1007B000E881F9810190F081E02DD8016C91CE01A2
:1007C000099581E00E94CE0291E0811190E0892F8D
:1007D000DF91CF911F910F9108950895E091A901A4
:1007E0008091A801E81730F4F0E0EC57FE4F8081CB
:1007F00090E008958FEF9FEF08959091A901809167
:10080000A8012FEF3FEF981748F4E92FF0E0EC57DD
:10081000FE4F208130E09F5F9093A901C9010895A8
:100820008091A8019091A901891B990B0895CF92FD
:10083000DF92EF92FF920F931F93CF93DF937C0190
:10084000CB018A012091FB01222389F0EB016B018E
:10085000C40ED51ECC15DD0569F06991D701ED9167
:10086000FC910190F081E02DC7010995F3CF642F31
:100870000E946802C801DF91CF911F910F91FF90F4
:10088000EF90DF90CF900895CF93DF931F92CDB775
:10089000DEB769832091FB012223F9F020911E022B
:1008A000203258F021E030E0FC013383228390E0D5
:1008B00080E00F90DF91CF9108958091FC01E82FA7
:1008C000F0E0E350FE4F998190838F5F8093FC01AD
:1008D00080931E0281E090E0ECCF61E0CE010196B2
:1008E0000E946802F7CF90E080E00895FC0101903B
:1008F0000020E9F73197AF01481B590BBC018FE18C
:1009000092E00C945B018F929F92AF92BF92CF9234
:10091000DF92EF92FF920F931F93CF93DF93CDB7A8
:10092000DEB7A1970FB6F894DEBF0FBECDBF6B0147
:100930007C01F7FE41C06DE28FE192E00E94FB0175
:100940008C0122273327A9012C193D094E095F0983
:1009500019A2CE0181967C019AE0892E912CA12CBE
:10096000B12CCA01B901A50194010E942E0B605D52
:10097000F70162937F01211531054105510589F782
:1009800090E080E0309719F0CF010E947604800F4C
:10099000911FA1960FB6F894DEBF0FBECDBFDF91B9
:1009A000CF911F910F91FF90EF90DF90CF90BF906C
:1009B000AF909F908F900895AC019B0119A28E017A
:1009C0000F5D1F4F8AE0C82ED12CE12CF12CCA01FB
:1009D000B901A70196010E942E0B605DF801629398
:1009E0008F01211531054105510589F790E080E01F
:1009F000309779F2CF010E947604CBCF2F923F92AD
:100A00004F925F926F927F928F929F92AF92BF921E
:100A1000CF92DF92EF92FF920F931F93CF93DF93CA
:100A2000CDB7DEB72F970FB6F894DEBF0FBECDBFA0
:100A30008C836F8349833987288748018FB7F8945F
:100A4000A090C701B090C801C090C901D090CA0160
:100A50008FBFE114F10421F48CEBE82E82E0F82E34
:100A60002C81220F2E833981832F90E0432F4195D3
:100A70004D83132F312C212C1F869B838A8301E009
:100A8000C401B0E0A0E08A879B87AC87BD87AA81BC
:100A9000BB812A163B060CF01AC10093FB01BC81F6
:100AA000B0931D021092FC0110921E02D701ED912D
:100AB000FC910190F081E02D6F81C701099581E0E3
:100AC0000E94CE020E9434012B013C018091F5016D
:100AD00081116DC01E87113210F0B0E2BE87009305
:100AE000F5010093F4012FEF2093F3011092F2012E
:100AF0008E8581508093F1010093D0018091D001C7
:100B00003E81832B8093D0018091CF01813009F009
:100B100098C01092CF010E9434012B013C018091BA
:100B2000D0018093BB008091F7019091F801A091D2
:100B3000F901B091FA01892B8A2B8B2BA1F00E942D
:100B400034012091F7013091F8014091F901509161
:100B5000FA016419750986099709261737074807A6
:100B6000590708F445C08091BC0083FDD8CF45ECFF
:100B70004093BC000E9434012B013C018091F5019F
:100B8000813009F462C08091F2019E85891718F4C2
:100B9000A091F201AE87E1EDF1E0A4E8B1E080E0E0
:100BA0002E85821751F191919D938F5FF9CF80919E
:100BB000F7019091F801A091F901B091FA01892B08
:100BC0008A2B8B2B09F482CF0E9434012091F701EC
:100BD0003091F8014091F9015091FA0164197509B9
:100BE00086099709261737074807590708F06ECF77
:100BF0008091F6010E94AD021E861092A9013E85E9
:100C00003093A801D701ED91FC910084F185E02D8E
:100C1000C7010995892B09F453C081149104B9F5D2
:100C2000D701ED91FC910284F385E02DC701099570
:100C3000E885F985BF85EB0FF11D8083BF5FBF8716
:100C4000E1CF55EE5093BC0095CF8091F701909184
:100C5000F801A091F901B091FA01892B8A2B8B2B15
:100C600009F48CCF0E9434012091F7013091F801F2
:100C70004091F9015091FA016419750986099709A3
:100C8000261737074807590708F078CFB1CF2FB795
:100C9000F8948091C7019091C801A091C901B091C9
:100CA000CA012FBF8A199B09AC09BD092A853B855A
:100CB0004C855D8582179307A407B50708F4B0CF6C
:100CC0004A815B81240E351E5D81150FE0CE8114B3
:100CD0009104E1F02FB7F8948091C7019091C80179
:100CE000A091C901B091CA012FBF8A199B09AC0913
:100CF000BD09B12CA12C88159905AA05BB0530F0BA
:100D00008F859981891710F4AFEFAF878F852F9664
:100D10000FB6F894DEBF0FBECDBFDF91CF911F910C
:100D20000F91FF90EF90DF90CF90BF90AF909F908A
:100D30008F907F906F905F904F903F902F9008958D
:100D40007F928F929F92AF92BF92CF92DF92EF925B
:100D5000FF920F931F93CF93DF9300D0CDB7DEB7F1
:100D6000A82E962E742E822EB02E08EE13E09E0131
:100D70002E5F3F4F41E00E94FE048823C1F1872D82
:100D80008819990BAC014F5F5F4F81E090E002C082
:100D9000880F991F8A94E2F70197042E01C0880FEB
:100DA0000A94EAF72B2D01C0220F4A95EAF7B82ED4
:100DB000B0949A81B92282238B298A8389839701EF
:100DC000AE014F5F5F4F692D8A2D0E94BE030F90C9
:100DD0000F90DF91CF911F910F91FF90EF90DF90D7
:100DE000CF90BF90AF909F908F907F90089580E0BC
:100DF000EECF85ED8093BC008091F7019091F801D2
:100E0000A091F901B091FA010796A11DB11D23E04F
:100E1000B695A795979587952A95D1F72091BC000F
:100E200024FD03C01092F50108954091F7015091FF
:100E3000F8016091F9017091FA01452B462B472B7F
:100E400069F30097A105B10541F02AE22A95F1F76F
:100E500000C00197A109B109E1CF8091F6010C947E
:100E6000AD021F920F920FB60F9211242F933F9352
:100E70008F939F93AF93BF938091C7019091C801C7
:100E8000A091C901B091CA013091C60123E0230F9E
:100E90002D3758F50196A11DB11D2093C6018093F1
:100EA000C7019093C801A093C901B093CA01809172
:100EB000CB019091CC01A091CD01B091CE010196D2
:100EC000A11DB11D8093CB019093CC01A093CD01C6
:100ED000B093CE01BF91AF919F918F913F912F9190
:100EE0000F900FBE0F901F90189526E8230F0296C3
:100EF000A11DB11DD2CF1F920F920FB60F921124D8
:100F00002F933F934F935F936F937F938F939F9311
:100F1000AF93BF93EF93FF938FE192E00E94D901CB
:100F2000FF91EF91BF91AF919F918F917F916F91C1
:100F30005F914F913F912F910F900FBE0F901F9097
:100F400018951F920F920FB60F9211242F938F9323
:100F50009F93EF93FF93E0912F02F09130028081F5
:100F6000E0913502F091360282FD1BC090818091A4
:100F700038028F5F8F7320913902821741F0E09120
:100F80003802F0E0E15EFD4F958F80933802FF91CB
:100F9000EF919F918F912F910F900FBE0F901F9007
:100FA00018958081F4CF1F920F920FB60F921124E3
:100FB0002F933F934F935F936F937F938F939F9361
:100FC000AF93BF93EF93FF938091B900887F8036F2
:100FD00009F44AC0F0F5883209F4A7C018F5803149
:100FE00009F49BC0B8F4882309F4F9C0883009F4E7
:100FF00094C0FF91EF91BF91AF919F918F917F919D
:101000006F915F914F913F912F910F900FBE0F9075
:101010001F901895883109F488C0803251F7809369
:10102000F30114C0803409F49DC040F48033B9F357
:101030008833F9F68093F30185ECB0C0803509F46C
:1010400085C0883509F496C0883499F60E94F9065F
:10105000D0CF883909F48CC038F5883729F050F49E
:10106000883611F0803729F683E08093F5011092DD
:10107000830157C0883809F47BC0803919F0803863
:1010800009F0B7CF80918301803208F071C0E09100
:10109000830181E08E0F809383018091BB00F0E09B
:1010A000ED59FE4F80833DC0803B39F0E0F4803A3B
:1010B00009F479C0883A09F09CCF84E08093F50167
:1010C0001092620110926101E091A601F091A701D6
:1010D00009958091610181110FC081E080936101C8
:1010E0001092410109C0803C09F4A6CF883C09F464
:1010F000A3CF883B09F07DCFE091620181E08E0FA4
:1011000080936201F0E0EF5BFE4F80818093BB0033
:10111000909162018091610129C08091D0018093FA
:10112000BB0085EC8093BC0064CF9091F20180916C
:10113000F101981758F5E091F20181E08E0F80934C
:10114000F201F0E0EF52FE4F8081E9CFE091F20131
:1011500081E08E0F8093F2018091BB00F0E0EF52AE
:10116000FE4F80839091F2018091F1019817C8F2AF
:1011700085E8D8CFE091F20181E08E0F8093F201F3
:101180008091BB00F0E0EF52FE4F80838091F4012C
:1011900081115CCF81E08093CF0184EA8093BC0011
:1011A0001092F50126CF85EC8093BC001092F501DA
:1011B00080918301803230F4E0918301F0E0ED59B9
:1011C000FE4F10826091830170E0E091A401F091E4
:1011D000A50183E691E00995109283010ACF109250
:1011E000F30134CFEFE1F2E01382128288EE93E054
:1011F000A0E0B0E084839583A683B78324E031E048
:101200003183208325EC30E03587248724EC30E0DF
:101210003787268720EC30E0318B208B21EC30E0C3
:10122000338B228B22EC30E0358B248B26EC30E0A4
:10123000378B268B118E128E138E148EECEBF2E010
:101240001382128284839583A683B78386E191E01B
:1012500091838083E8ECF2E088E680831282118239
:1012600088EF9AE2A0E0B0E0818B928BA38BB48BE5
:101270000895CF93DF9300D0CDB7DEB7789484B5CF
:10128000826084BD84B5816084BD85B5826085BD82
:1012900085B5816085BD80916E00816080936E0010
:1012A0001092810080918100826080938100809102
:1012B00081008160809381008091800081608093B3
:1012C00080008091B10084608093B1008091B00073
:1012D00081608093B00080917A00846080937A006E
:1012E00080917A00826080937A0080917A00816098
:1012F00080937A0080917A00806880937A001092BF
:10130000C100E0912F02F091300282E08083E091F1
:101310002B02F0912C021082E0912D02F0912E020E
:1013200080E1808310923702E0913302F091340221
:1013300086E08083E0913102F09132028081806109
:101340008083E0913102F091320280818860808355
:10135000E0913102F0913202808180688083E091D7
:101360003102F091320280818F7D80831092A90139
:101370001092A8011092FC0110921E020E948F028E
:1013800089E591E09093A7018093A6018AE591E019
:101390009093A5018093A401E090C902F090CA0245
:1013A00001E023E042E06BE68091C8020E94A006C3
:1013B000E090C902F090CA0200E022E044E06BE154
:1013C0008091C8020E94A00680E090E0AAE7BCE3FA
:1013D0008093E1029093E202A093E302B093E402CF
:1013E000E090C902F090CA0222E044E06CE18091F2
:1013F000C8020E94A00680E090E0A0E0B9E38093DC
:10140000DD029093DE02A093DF02B093E002A09091
:10141000C902B090CA02D090C802750108EE13E06C
:101420009E012E5F3F4F41E06BE68D2D0E94FE0432
:101430008A818F7B8A8389839501AE014F5F5F4FDD
:101440006BE68D2D0E94BE03E090C902F090CA02A7
:1014500006E023E042E06AE18091C8020E94A00613
:10146000E090C902F090CA0200E022E044E06CE1A2
:101470008091C8020E94A00687E00E948C0088E04C
:101480000E948C00ECEAF1E01192119221E0E03C24
:10149000F207D1F72AE0822E912CA12CB12CE090FA
:1014A000C902F090CA0208EE13E02BEC32E04EE0E5
:1014B0006BE38091C8020E94FE04E090CD02F090A0
:1014C000CE02FE24EF24FE2487E00E94DD008C0182
:1014D00088E00E94DD0077247394892B09F0712C39
:1014E0002091C0013091C101F901EE0FFF1FE455B9
:1014F000FE4F20803180032C000C44085508809159
:10150000C2019091C301A091C401B091C501AC0189
:10151000BD0142195309640975091A012B01F182B1
:10152000E082B701FF0C880B990B620D731D841DBF
:10153000951D6093C2017093C3018093C401909381
:10154000C5012F5F3F4F2A3031050CF063C0309347
:10155000C1012093C001A50194010E940F0B30939B
:10156000AB012093AA0184E291E00E94760460918D
:10157000AA017091AB01072E000C880B990B0E94F9
:10158000830488E291E00E947604B801110F880B71
:10159000990B0E94830482E391E00E947604672DF8
:1015A00070E090E080E00E9483048CE391E00E9470
:1015B00076040E9434016B017C0184E1482E512C99
:1015C000612C712C0E9434016C197D098E099F09D0
:1015D000683E734081059105A8F351E0451A510812
:1015E0006108710868EEC60E63E0D61EE11CF11CAE
:1015F000411451046104710429F740E050E0452B87
:1016000009F44DCF0E94C501882309F448CF0E94F8
:10161000000045CF1092C1011092C0019CCF052E51
:1016200097FB1EF400940E94260B57FD07D00E94E2
:101630002E0B07FC03D04EF40C94260B50954095CE
:10164000309521953F4F4F4F5F4F0895909580956E
:10165000709561957F4F8F4F9F4F0895A1E21A2E8D
:10166000AA1BBB1BFD010DC0AA1FBB1FEE1FFF1F46
:10167000A217B307E407F50720F0A21BB30BE40B96
:10168000F50B661F771F881F991F1A9469F76095DD
:101690007095809590959B01AC01BD01CF01089597
:1016A000EE0FFF1F0590F491E02D0994F894FFCF01
:1016B00000000000FB015B0188014802B9019701AD
:1016C000AB0100000000440417047304ED03100490
:1016D000FD03EE0361793A002C627574746F6E310C
:1016E0003A002C627574746F6E323A000D0A000075
:107E0000112484B714BE81FFF0D085E080938100F7
:107E100082E08093C00088E18093C10086E0809377
:107E2000C20080E18093C4008EE0C9D0259A86E02C
:107E300020E33CEF91E0309385002093840096BBD3
:107E4000B09BFECF1D9AA8958150A9F7CC24DD24C4
:107E500088248394B5E0AB2EA1E19A2EF3E0BF2EE7
:107E6000A2D0813461F49FD0082FAFD0023811F036
:107E7000013811F484E001C083E08DD089C08234E0
:107E800011F484E103C0853419F485E0A6D080C0E4
:107E9000853579F488D0E82EFF2485D0082F10E0AE
:107EA000102F00270E291F29000F111F8ED06801E7
:107EB0006FC0863521F484E090D080E0DECF843638
:107EC00009F040C070D06FD0082F6DD080E0C81688
:107ED00080E7D80618F4F601B7BEE895C0E0D1E017
:107EE00062D089930C17E1F7F0E0CF16F0E7DF06D8
:107EF00018F0F601B7BEE89568D007B600FCFDCFD4
:107F0000A601A0E0B1E02C9130E011968C91119780
:107F100090E0982F8827822B932B1296FA010C0160
:107F200087BEE89511244E5F5F4FF1E0A038BF0790
:107F300051F7F601A7BEE89507B600FCFDCF97BE46
:107F4000E89526C08437B1F42ED02DD0F82E2BD052
:107F50003CD0F601EF2C8F010F5F1F4F84911BD097
:107F6000EA94F801C1F70894C11CD11CFA94CF0C13
:107F7000D11C0EC0853739F428D08EE10CD085E9AC
:107F80000AD08FE07ACF813511F488E018D01DD067
:107F900080E101D065CF982F8091C00085FFFCCF94
:107FA0009093C60008958091C00087FFFCCF809118
:107FB000C00084FD01C0A8958091C6000895E0E648
:107FC000F0E098E1908380830895EDDF803219F02E
:107FD00088E0F5DFFFCF84E1DECF1F93182FE3DFCA
:107FE0001150E9F7F2DF1F91089580E0E8DFEE27F6
:047FF000FF270994CA
:027FFE00040479
:00000001FF
